:020000040800F2
:100000009004002049010008CB02000831020008DA
:10001000C902000891010008C90900080000000099
:1000200000000000000000000000000019050008AA
:100030009301000800000000450300083D0500088A
:100040006301000863010008630100086301000800
:1000500063010008630100086301000863010008F0
:1000600063010008630100086301000863010008E0
:1000700063010008630100086301000863010008D0
:10008000630100086301000863010008000000002C
:1000900000000000000000000000000063010008F4
:1000A00063010008630100086301000863010008A0
:1000B000A90600083D070008630100086301000865
:1000C0006301000863010008630100086301000880
:1000D0006301000863010008630100086301000870
:1000E0006301000863010008630100086301000860
:1000F0006301000863010008000000000000000028
:100100000000000000000000630100086301000817
:10011000630100086301000863010008630100082F
:10012000630100086301000863010008630100081F
:1001300063010008DFF80CD000F018F80048004711
:10014000F10A00089004002006488047064800474E
:10015000FEE7FEE7FEE7FEE7FEE7FEE7FEE7FEE777
:10016000FEE7FEE74105000835010008064C074D93
:1001700006E0E06840F0010394E807009847103477
:10018000AC42F6D3FFF7DAFF4C0B00086C0B00080B
:10019000FEE77047F0B5CC78002204F00F03E406C8
:1001A00001D58C7823430C884FF00F0C14F0FF0F0F
:1001B0004FF0010E1AD005680E880EFA02F42640A0
:1001C000A6420FD196000CFA06F7BD4303FA06F6D5
:1001D0003543CE78282E02D0482E02D002E044616A
:1001E00000E00461521C082AE6D305600A88FF2A51
:1001F0001DD94568002202F108060EFA06F40E88A1
:100200002640A6420FD196000CFA06F725EA07070A
:1002100003FA06F5CE783D43282E00D14461CE780E
:10022000482E00D10461521C082AE4D34560F0BD79
:10023000FEE7000030B5012185B0480400F084F8E5
:100240000121084600F08CF80121042000F088F814
:100250004FF4E13000900020ADF80400ADF8060046
:10026000ADF80800ADF80C000C20ADF80A0004242D
:10027000ADF8104003208DF812001820104D8DF8B5
:10028000130004A92846FFF785FF0821ADF81010D8
:100290008DF8134004A92846FFF77CFF094C6946F6
:1002A000204600F033FB0121204600F01EFB4021D8
:1002B000204600F024FB0028F9D005B030BD000036
:1002C0000008014000440040FEE7704770B50F246D
:1002D000C278017801254FF0E026DAB1124A12689F
:1002E00002F4E062C2F5E062120AC2F10403D440F3
:1002F00042789A408378234013431A010B4BCA5427
:10030000007800F01F018D40400906EB8000C0F826
:10031000005170BD01F01F008540480906EB8000C8
:10032000C0F8805170BD00000CED00E000E400E07A
:100330000249084302490860704700000000FA05BE
:100340000CED00E070470000044A0029D16901D09B
:10035000014300E08143D16170470000001002407A
:10036000044A0029916901D0014300E08143916171
:10037000704700000010024030B5224A5168224BFD
:1003800011F00C0103D0042901D0082901D0036029
:1003900015E05168546801F470114FF0020514F42F
:1003A000803F05EB914107D0D46A04F00F04641C30
:1003B000B3FBF4F34B43EAE7144B59430160516834
:1003C000134B01F0F00109095C5C0168E1404160F8
:1003D000546804F4E064240A1C5D21FA04F4846087
:1003E000546804F46054E40A1B5DD940C16052684B
:1003F000074B02F44042920B1B1F9A5CB1FBF2F1D7
:10040000016130BD0010024000127A0000093D0079
:10041000140000200246002012890A4200D0012068
:1004200070478089704781817047000010B5084C83
:1004300001462046FFF7F7FF01212046FFF7EAFFBC
:100440000028F9D02046FFF7ECFFC0B210BD000035
:10045000003800402DE9F0410E4D0E460021C5F850
:1004600084110D4F01463846FFF7DDFF0121384664
:10047000FFF7D0FF0028F9D03846FFF7D2FFC4B20B
:1004800031463846FFF7CFFF0120C5F884012046EA
:10049000BDE8F081008021420038004070B50D4C6D
:1004A0000022C4F884210C4D01462846FFF7BBFF0B
:1004B00000212846FFF7B7FF01212846FFF7AAFFD2
:1004C0000028F9D02846FFF7ACFF0121C0B2C4F8DC
:1004D000841170BD00802142003800402DE9F041B8
:1004E0000C4F0D4600211646C7F88411FFF79EFFFA
:1004F0008046002405E00020FFF798FF2855641C83
:10050000E4B2B442F7D30120C7F884014046BDE805
:10051000F0810000008021427047000010B5064CB9
:100520000146204600F04CFA8021204600F0E7F911
:100530000028F9D010BD00000044004070470000C2
:100540000E48016841F00101016041680C4A114008
:10055000416001680B4A11400160016821F480216B
:100560000160416821F4FE0141604FF41F01816088
:100570000021C1620449C0030860704700100240B6
:100580000000FFF8FFFFF6FE08ED00E010B500F0F8
:100590009CF8BDE8104000F065B80000064881698D
:1005A000491C81610078012804D1044801686FEA80
:1005B00001010160704700004800002094012142C1
:1005C00070B5234A0123D06870B1401CD060322836
:1005D00007D12049D1F89C0120B10020C1F89C012D
:1005E000D36070BD0120F9E790681B4C401C9060FF
:1005F00021780025491CC9B22170B0F5167F01D1C0
:10060000D3709560C829ECD12570144800F084FAA5
:100610000128E6D1114D28787E28E2D168787E281D
:10062000DFD1A8783428DCD17E20FFF777FF7E2049
:10063000FFF774FF0024285DFFF770FF641CE4B22D
:10064000202CF8D3BDE87040022105A000F041B98C
:1006500048000020008021420C00002028000020DB
:100660003C3C00003EB501210846FFF76DFE0D2021
:10067000ADF804001720ADF800000020ADF802002E
:100680004FF080446946204600F0CEF80121204614
:1006900000F0A5F801221146204600F0BCF8012127
:1006A000204600F0A2F83EBD10B501218C0720467F
:1006B00000F0A5F8002807D00121204600F092F8AC
:1006C000BDE81040FFF76ABF10BD08B54FF4E06009
:1006D000FFF72EFE1C208DF8000000208DF8010091
:1006E00003208DF8020001208DF803006846FFF713
:1006F000EDFD08BD3EB501210220FFF725FE0520D6
:10070000ADF8040045F6BF50ADF8000000200A4CDB
:10071000ADF802006946204600F086F80121204627
:1007200000F05DF801221146204600F074F8012126
:10073000204600F05AF83EBD0004004010B5144CAD
:100740000121204600F05BF800281FD0012120463F
:1007500000F048F80F49087858B1002008700E4999
:100760000122C1F89C2130B1C1F89C2107210BA0C6
:1007700006E00120F2E70020C1F89C010A210AA04E
:1007800000F06CF9BDE81040FFF71ABF10BD000083
:100790000004004000000020008021426C65645F7E
:1007A0006F6E0D0A000000006C65645F6F66660D79
:1007B0000A00000008B54FF4C060FFF7B9FD1D2026
:1007C0008DF8000000208DF8010004208DF8020053
:1007D00001208DF803006846FFF778FD08BDC94386
:1007E00001827047C943018270470029018802D005
:1007F00041F0010101E021F0010101807047024652
:100800000020138A92890B4202EA010202D0002AD8
:1008100000D001207047002A828901D00A4300E0FD
:100820008A4382817047000030B502881B4C1C4D02
:10083000A0420DD0A8420BD0B0F1804F08D0194B88
:10084000984205D0184B984202D0184B984203D1D9
:1008500022F070034A881A43154B984206D0154B74
:10086000984203D022F44073CA881A4302808A88CF
:1008700082850A880285A0420AD0A84208D00E4A82
:10088000904205D00D4A904202D00D4A904201D1CB
:10089000097A01860121818230BD0000002C0140CF
:1008A000003401400004004000080040000C0040FB
:1008B000001000400014004000400140004401408E
:1008C0000048014010B5FFF775FFBDE81040FFF785
:1008D00011BF70B505460E46002403E0285DFFF702
:1008E0001DFE641CB442F9D370BD0029818902D079
:1008F00041F4005101E021F400518181704702462A
:10090000002012880A4200D00120704730B50D4601
:10091000018A85B004464CF6FF700140E888084320
:100920002082A0894EF6F3110840A9882A89114334
:100930006A8902431143A181A18A4FF6FF40014019
:10094000A8890843A0826846FFF716FD1B48844229
:1009500001D1039800E00298A1890904002900EB65
:10096000C00101EB0010296802DA4FEA410101E001
:100970004FEA8101B0FBF1F06422B0FBF2F14FEAE3
:1009800001114FEA11136FF018056B4300EB830060
:10099000A3891D044FF0320306D503EBC000B0FB62
:1009A000F2F000F0070005E003EB0010B0FBF2F0FE
:1009B00000F00F000843208105B030BD0038014031
:1009C000C1F3080181807047FEE70000F8B50121FE
:1009D0000420FFF7C5FC01210820FFF7C1FC4020DF
:1009E000ADF8000003248DF802400420194E8DF864
:1009F000030069463046FFF7CDFB2020ADF800002C
:100A00008DF8024010258DF8035069463046FFF7F7
:100A1000C1FBE802ADF800008DF802408DF80350EC
:100A200069463046FFF7B6FBADF800508DF802403E
:100A30008DF8035069463046FFF7ACFB8020ADF8D7
:100A400000008DF802408DF8035069460248FFF718
:100A5000A1FBF8BD00080140000C0140014A024919
:100A600000F013B8CD0A00088800002002E008C892
:100A7000121F08C1002AFAD170477047002001E018
:100A800001C1121F002AFBD170472DE9F041044635
:100A90000F461646002503E03946B0476D1C641C1E
:100AA00020780028F8D12846BDE8F0814FF0E020FA
:100AB000016921F0040101610348012101704FF433
:100AC0007A714180704700002400002070B5074D06
:100AD0000446C1B22846FFF773FF40212846FFF7BE
:100AE0000EFF0028F9D0204670BD000000440040F1
:100AF000084800210170416001214170FFF766FF45
:100B0000FFF7D4FFFFF796FBFFF740FDFFF7DAFE94
:100B1000FEE700000400002070B506460024072010
:100B2000FFF7BCFC0546FF212720FFF793FC680672
:100B300009D5202231466120FFF7D0FCFF21E220B9
:100B4000FFF788FC0124204670BD00006C0B0008F4
:100B5000000000208C0000006C0A0008F80B000860
:100B60008C000020040400007C0A00080000000043
:100B70000000000000000000000000000204060861
:100B80000000000001020304010203040607080933
:100B900000000000010102030405060708090A0B12
:100BA0000C0D0E0F101112131415161718191A1B0D
:100BB0001C1D1E1F000001000000000000000000BE
:100BC0000000000000000000000000000000000025
:100BD0000000000000000000000000000000000015
:100BE0007E7E344310100100010000000000000070
:080BF0000100000000000000FC
:0400000508000135B9
:00000001FF
